:100000000AC023C022C021C0FEC01FC0EBC01DC05B
:100010001CC01BC01AC011241FBECFEDCDBF10E005
:10002000A0E6B0E0E0E7F4E003C0C89531960D9299
:10003000A236B107D1F720E0A2E6B0E001C01D92E0
:10004000A238B207E1F7C2D111C2DACF83EF87BB82
:1000500081E088BB80E481BB87E083BF8AE08EBDFE
:1000600080E89EE39BBD8ABD82E489BF0895CF925C
:10007000DF92EF92FF920F931F93CF93DF9380E86D
:100080006FD1809163009091640020917500309150
:100090007600482F592F4F5F5F4F4217530770F07C
:1000A00001972817390750F087E44DD18FE64BD1DF
:1000B0008FE649D184E647D18EE209C081E243D17F
:1000C00080E241D180E23FD180E23DD180E23BD16C
:1000D000609175007091760080917300909174002A
:1000E000680F791F8091710090917200680F791FDD
:1000F00080916F0090917000680F791F80916D0062
:1001000090916E00680F791F80916B0090916C0048
:10011000680F791F8091690090916A00680F791FBC
:100120008091670090916800680F791F8091650049
:1001300090916600680F791F809163009091640030
:10014000680F791F80E090E02AE030E040E050E066
:100150004BD12091620030E040E050E060D1C2E835
:10016000D0E00AE710E08AE0C82ED12CE12CF12C77
:10017000622F732F842F952F5F2D4E2D3D2D2C2D0B
:100180004ED1605D6A930C171D0791F780ECE8D0A3
:10019000F12CC0E0D0E0E02FF12F81910E2F1F2F26
:1001A000803329F4F11003C080E2CDD003C0CBD05E
:1001B000FF24F3942196C830D10531F0C730D10522
:1001C00051F78EE2C0D0E7CF80E2BDD088E4BBD04B
:1001D0008AE7DF91CF911F910F91FF90EF90DF9011
:1001E000CF90B1C01F920F920FB60F9211248F9330
:1001F000809177008F5F809377008F910F900FBE73
:100200000F901F9018951F920F920FB60F92112406
:100210002F933F938F939F9392B380E4892782BB60
:1002200080917800909179000196883E23E09207B2
:1002300028F4909379008093780063C0109279003D
:100240001092780022B78091770090E0982F88274D
:10025000820F911D1092770012BE209162002F5FD5
:100260002B3008F02AE02093620020917300309137
:1002700074003093760020937500209171003091C6
:100280007200309374002093730020916F003091BE
:100290007000309372002093710020916D003091B6
:1002A0006E003093700020936F0020916B003091AE
:1002B0006C0030936E0020936D00209169003091A6
:1002C0006A0030936C0020936B002091670030919E
:1002D000680030936A002093690020916500309196
:1002E000660030936800209367002091630030918E
:1002F00064003093660020936500909364008093BF
:1003000063009F918F913F912F910F900FBE0F909F
:100310001F90189583EF87BB81E088BB80E481BB89
:10032000089598B39F7098BB98B3807F982B98BB23
:10033000C19A82E48A95F1F700C0C19882E48A9557
:10034000F1F700C00895CF93C82F807FEADF8C2F8C
:100350008295807FCF91E5CFC098E3DFC09A089562
:10036000C098F1DFC09A08952FE382E49FE0215006
:1003700080409040E1F700C0000080E3EDDF83EDB6
:1003800090E30197F1F700C0000080E3E5DF83ED23
:1003900090E30197F1F700C0000080E3DDDF83EC1C
:1003A00099E00197F1F700C0000080E2D5DF88E214
:1003B000D7DF8EE0D5DF86E0D3DF81E0D1DF8BE7CA
:1003C00092E90197F1F700C0000008952FE38DE056
:1003D00093E0215080409040E1F700C0000036DEFD
:1003E000C3DF789444DEFECFEE27FF27AA27BB2782
:1003F00008C0A20FB31FE41FF51F220F331F441FB5
:10040000551F969587957795679598F37040A9F74E
:10041000009799F76A2F7B2F8E2F9F2F0895A1E2C7
:100420001A2EAA1BBB1BEA2FFB2F0DC0AA1FBB1F36
:10043000EE1FFF1FA217B307E407F50720F0A21B6A
:10044000B30BE40BF50B661F771F881F991F1A94D7
:1004500069F76095709580959095262F372F482FD6
:10046000592F6A2F7B2F8E2F9F2F0895F894FFCF3F
:02047000D204B4
:00000001FF
