:100000000AC017C016C015C014C013C023C011C049
:1000100010C00FC00EC011241FBECFEDCDBF20E019
:10002000A0E6B0E001C01D92A836B207E1F767D0A4
:100030007AC0E6CF95980895959A08951092610038
:1000400080E281BB959A969A82E083BF89BF86E061
:1000500082BF08951F920F920FB60F9211248F93B3
:1000600086E082BF809160008F5F853019F08093B9
:10007000600005C01092600081E0809361008F9164
:100080000F900FBE0F901F901895969A8AE080935C
:1000900064008FEF8093620080936600809363001A
:1000A0000895309162002091630040916600922F84
:1000B000942B982B932324232823922B9093620034
:1000C000232F2095292320936700909593239093C5
:1000D0006500409363008093660008951092670066
:1000E0001092650080916400815019F08093640043
:1000F00008958AE08093640080B38074D2CFC5DF16
:100100009DDF7894809161008823E1F31092610073
:10011000E5DF8091650086FD8DDF8091670086FFB9
:0A012000F1CF8ADFEFCFF894FFCF94
:00000001FF
