:100000000AC023C022C021C032C01FC01EC01DC0F4
:100010001CC01BC01AC011241FBECFEDCDBF10E005
:10002000A0E6B0E0E4E8F3E003C0C89531960D9295
:10003000A037B107D1F720E0A0E7B0E001C01D92E2
:10004000AB38B207E1F7FFD09BC1DACFE199FECF21
:1000500080E090E082D190E0A0E0B0E08093710079
:1000600090937200A0937300B093740008951F9250
:100070000F920FB60F9211248F9381E0809370003E
:100080008F910F900FBE0F901F901895E5E7F0E04D
:100090008FEF9FEFAFEFBFEF80839183A283B38396
:1000A00084839583A683B78380879187A287B3874C
:1000B00084879587A687B7870895E5E7F0E0808174
:1000C0009181A281B3810197A109B1098E3F2FEFE0
:1000D0009207A207B20720F480839183A283B3839F
:1000E000349680E0E538F80751F7089590E0880FDE
:1000F000991F880F991FE82FF92FEB58FF4FA82F52
:10010000B92FA05ABF4F8D919D910D90BC91A02DFC
:1001100080839183A283B3830895E82FF0E0EE0FEC
:10012000FF1FEE0FFF1FEB58FF4F8FEF9FEFAFEF5B
:10013000BFEF80839183A283B3830895E82FF0E01B
:10014000EE0FFF1FEE0FFF1FEB58FF4F81E04081C6
:10015000518162817381452B462B472B09F080E04A
:100160000895E82FF0E0EE0FFF1FEE0FFF1FEB5892
:10017000FF4F81E040815181628173814F3F5F4F2A
:100180006F4F7F4F09F080E00895E82FF0E0EE0F09
:10019000FF1FEE0FFF1FEB58FF4F4081518162811F
:1001A0007381415051096109710981E04E3F5F4FF0
:1001B0006F4F7F4F08F080E00895E82FF0E0EE0FDA
:1001C000FF1FEE0FFF1FEB58FF4F408351836283E9
:1001D000738308958AE0809387008FEF8093850072
:1001E0008093890080938600089530918500409126
:1001F000890020918600942F922B982B93232423FF
:100200002823922B90938500232F20952923209338
:100210008A00909593239093880040938600809362
:100220008900089510928A001092880080918700BA
:10023000815019F08093870008958AE080938700A9
:1002400086B38071D2CF02DF21DFC4DF789410E063
:10025000C0E0D0E0E7DF31DF8091880084FF03C099
:10026000DF5F80E043DF80E069DF8823E1F0D130A9
:1002700041F481E08ADF882309F43EC081E04DDF4C
:100280000FC0D53069F4C1110BC082E02FDF10928E
:100290007100109272001092730010927400C1E00D
:1002A00080E03BDFD0E081E070DF882311F0C09A6E
:1002B00001C0C0988091790090917A00A0917B0054
:1002C000B0917C00892B8A2B8B2B11F0C29AC2989B
:1002D000CC2321F0C29A1F5F17FDC19882E02EDF68
:1002E000882319F082E019DFC0E080917000882334
:1002F000E1F310927000AECF81E033DF882359F034
:10030000409171005091720060917300709174007F
:1003100081E053DFC5CFC13019F680917100909113
:100320007200A0917300B0917400682F792F8A2F0A
:100330009B2F6F5F7F4F8F4F9F4F60937100709324
:1003400072008093730090937400E199FECF80E077
:1003500090E00AD082E0CADEA3CFE199FECF8EBB47
:10036000E09A99278DB30895262FE199FECF8EBB91
:100370002DBB0FB6F894E29AE19A0FBE019608954C
:04038000F894FFCF1F
:1003840058020000A0BB0D0070170000E703000036
:02000004008179
:0100000000FF
:00000001FF
