:100000000C9434000C9451000C9451000C94510049
:100010000C9451000C9451000C9451000C9451001C
:100020000C9451000C9451000C9451000C94A700B6
:100030000C9451000C9451000C9451000C945100FC
:100040000C9451000C9451000C9451000C945100EC
:100050000C9451000C9451000C9451000C945100DC
:100060000C9451000C94510011241FBECFEFD8E026
:10007000DEBFCDBF11E0A0E0B1E0E6EBF1E002C0F1
:1000800005900D92A833B107D9F721E0A8E3B1E0BC
:1000900001C01D92AD33B207E1F70E94B6000C9487
:1000A000D9000C94000081E084B98CE08093810039
:1000B00081E390E0909389008093880010928500FE
:1000C0001092840082E080936F00089520E030E079
:1000D00061E070E0FC014191CF0145B9AB01022E16
:1000E00001C0440F0A94EAF740954BB9EFE9F5E0F7
:1000F0003197F1F700C000002F5F3F4F27303105E7
:1001000049F70895811103C080E391E01DC081305B
:1001100019F488E291E018C0823019F480E291E08D
:1001200013C0833019F488E191E00EC0843019F4D3
:1001300080E191E009C0853019F488E091E004C0C5
:10014000863021F480E091E00C94660008951F92BF
:100150000F920FB60F9211248F9381E080933C0190
:100160008F910F900FBE0F901F9018950E94530013
:100170007894C0E0D5E080913C018823E1F31092AF
:100180003C01CF5F8C2F6D2F0E94CD009111F3CFDA
:1001900088E191E00E946600EECF991B79E004C0EF
:1001A000991F961708F0961B881F7A95C9F78095B6
:0601B0000895F894FFCF52
:1001B60010107C101010FE001028FE10FE54FE00D9
:1001C60010FE1038549210001012F4385492300079
:1001D600101054581028C6003E223E223E42860089
:0801E6007E42427E42427E008F
:00000001FF
