:100000000AC023C022C021C020C01FC086C01DC09E
:100010001CC01BC01AC011241FBECFEDCDBF10E005
:10002000A0E6B0E0ECE8F5E003C0C89531960D928B
:10003000AC38B107D1F720E0ACE8B0E001C01D92C8
:10004000A93AB207E1F78ED19FC2DACF8091610061
:10005000815019F080936100089582E380936100DC
:100060008091910090919200009719F41092900065
:100070000895292F221F2227221F20939000880FE6
:10008000991F9093920080939100089595980895F8
:10009000959A089592B380E2892782BB08950097CC
:1000A00029F41FBC1EBC1BBC1ABC0895880F991FE5
:1000B000E82FF92FEE59FF4F2081318180E48FBD69
:1000C00089E08EBD220F331F40E050E060E876E902
:1000D00088E990E003D23BBD2ABD089510928F00BD
:1000E00088E287BB80E281BB80E482BB82E083BF81
:1000F00089BF86E082BFE199FECF80E090E031D2F7
:100100008093600010928D0081E080938E0080913A
:100110008E0090E0C4DF81E0B1C01F920F920FB655
:100120000F9211242F933F934F935F936F937F937D
:100130008F939F93AF93BF93EF93FF9386E082BF1C
:1001400080918C008F5F853019F080938C0005C002
:1001500010928C0081E080938F0082E0CAD08111E0
:100160000EC080919000882329F08CE090E097DF0A
:1001700091DF05C01FBC1EBC1BBC1ABC89DFFF91F0
:10018000EF91BF91AF919F918F917F916F915F910F
:100190004F913F912F910F900FBE0F901F90189588
:1001A000969A00008AE0809395008FEF80939300E9
:1001B000809397008093940008953091930040912C
:1001C000970020919400942F922B982B9323242313
:1001D0002823922B90939300232F2095292320935B
:1001E0009800909593239093960040939400809369
:1001F00097000895109298001092960080919500B3
:10020000815019F08093950008958AE080939500BD
:10021000000080B38074D1DF00000895E9E9F0E0C8
:100220008FEF9FEFAFEFBFEF80839183A283B38304
:1002300084839583A683B78380879187A287B387BA
:1002400084879587A687B7870895E9E9F0E08081DC
:100250009181A281B3810197A109B1098E3F2FEF4E
:100260009207A207B20720F480839183A283B3830D
:10027000349680E0E93AF80751F7089590E0880F46
:10028000991F880F991FE82FF92FE756FF4FA82FC6
:10029000B92FA458BF4F8D919D910D90BC91A02D69
:1002A00080839183A283B3830895E82FF0E0EE0F5B
:1002B000FF1FEE0FFF1FE756FF4F8FEF9FEFAFEFD0
:1002C000BFEF80839183A283B3830895E82FF0E08A
:1002D000EE0FFF1FEE0FFF1FE756FF4F81E040813B
:1002E000518162817381452B462B472B09F080E0B9
:1002F0000895E82FF0E0EE0FFF1FEE0FFF1FE75607
:10030000FF4F81E040815181628173814F3F5F4F98
:100310006F4F7F4F09F080E00895E82FF0E0EE0F77
:10032000FF1FEE0FFF1FE756FF4F40815181628193
:100330007381415051096109710981E04E3F5F4F5E
:100340006F4F7F4F08F080E00895E82FF0E0EE0F48
:10035000FF1FEE0FFF1FE756FF4F4083518362835D
:1003600073830895000000000000000000002FE3E8
:1003700082E49FE0215080409040E1F700C00000FF
:100380004DDF0EDFABDE789400E010E8EE24E3945E
:1003900081EFF82EBB24B394C0E0D1EF9AEAC92EC6
:1003A000DC2C80918F008823E1F310928F0022DFF4
:1003B0004CDF4CDE8091960086FF11C01FBC1EBC36
:1003C0001BBC1ABC80918D008F5F80938D001093B1
:1003D00092000093910080E051DF82E04FDF80E0E7
:1003E00075DF882309F455C080918D00813099F420
:1003F00080918E008F5F80938E008C3010F0109271
:100400008E0080918E00811104C0D0939200C09321
:10041000910081E04ADF80918D00823071F4D092AA
:100420009200C092910080918E00811102C0B09222
:100430008E0081E023DF82E021DF80918D00833018
:1004400051F4D0939200C093910010928E0081E0FD
:100450002CDF82E013DF80918D008530B1F4F092C3
:100460009200E092910080916000813019F4109226
:10047000600002C0B0926000E199FECF6091600020
:1004800080E090E075D082E0F9DE80E00EDF10922F
:100490008D0082E01BDF882331F082E006DF80914F
:1004A0008E0090E0FCDD81E011DF882379F081E0AF
:1004B000E5DE80918E008F5F80938E008C3010F08F
:1004C000B0928E0080918E0090E0E9DD8091600016
:1004D000813011F4DBDD65CFDBDD63CF052E97FBCB
:1004E00016F400940FD057FD05D014D007FC02D0AD
:1004F00046F408C050954095309521953F4F4F4F99
:100500005F4F089590958095709561957F4F8F4FBF
:100510009F4F0895A1E21A2EAA1BBB1BEA2FFB2FA7
:100520000DC0AA1FBB1FEE1FFF1FA217B307E407D2
:10053000F50720F0A21BB30BE40BF50B661F771F2A
:10054000881F991F1A9469F760957095809590950A
:10055000262F372F482F592F6A2F7B2F8E2F9F2F13
:100560000895E199FECF8EBBE09A99278DB3089547
:10057000262FE199FECF8EBB2DBB0FB6F894E29AE1
:0C058000E19A0FBE01960895F894FFCF99
:10058C00013200008C01A10110027F02E50254032C
:10059C007803B001BC0199007008E010580200000B
:0C05AC0020BF02004C040000E703000028
:02000004008179
:0100000000FF
:00000001FF
